{
  "contractName": "Concatenate",
  "abi": [
    {
      "constant": true,
      "inputs": [
        {
          "name": "_input1",
          "type": "string"
        },
        {
          "name": "_input2",
          "type": "string"
        }
      ],
      "name": "concatWithoutImport",
      "outputs": [
        {
          "name": "",
          "type": "string"
        }
      ],
      "payable": false,
      "stateMutability": "pure",
      "type": "function"
    }
  ],
  "bytecode": "0x608060405234801561001057600080fd5b50610367806100206000396000f300608060405260043610610041576000357c0100000000000000000000000000000000000000000000000000000000900463ffffffff16806334d1460b14610046575b600080fd5b34801561005257600080fd5b506100f3600480360381019080803590602001908201803590602001908080601f0160208091040260200160405190810160405280939291908181526020018383808284378201915050505050509192919290803590602001908201803590602001908080601f016020809104026020016040519081016040528093929190818152602001838380828437820191505050505050919291929050505061016e565b6040518080602001828103825283818151815260200191508051906020019080838360005b83811015610133578082015181840152602081019050610118565b50505050905090810190601f1680156101605780820380516001836020036101000a031916815260200191505b509250505060405180910390f35b6060806060600080600060606000808a975089965087519550865194508486019350836040519080825280601f01601f1916602001820160405280156101c35781602001602082028038833980820191505090505b509250600091505b858210156102775787828151811015156101e157fe5b9060200101517f010000000000000000000000000000000000000000000000000000000000000090047f010000000000000000000000000000000000000000000000000000000000000002838381518110151561023a57fe5b9060200101907effffffffffffffffffffffffffffffffffffffffffffffffffffffffffffff1916908160001a90535081806001019250506101cb565b600090505b8481101561032a57868181518110151561029257fe5b9060200101517f010000000000000000000000000000000000000000000000000000000000000090047f010000000000000000000000000000000000000000000000000000000000000002838783018151811015156102ed57fe5b9060200101907effffffffffffffffffffffffffffffffffffffffffffffffffffffffffffff1916908160001a905350808060010191505061027c565b8298505050505050505050929150505600a165627a7a7230582042b7e67b9573f8918a640465d47b06fd799f4239727652ce748cf364b27d8a930029",
  "source": "//Write your own contracts here. Currently compiles using solc v0.4.15+commit.bbb8e64f.\r\npragma solidity ^0.4.24;\r\n\r\ncontract Concatenate {\r\n\r\n    function concatWithoutImport(string _input1, string _input2) \r\n      public \r\n      pure \r\n      returns (string) \r\n    {\r\n        bytes memory sBytes = bytes(_input1);\r\n        bytes memory tBytes = bytes(_input2);\r\n\r\n        uint length1 = sBytes.length;\r\n        uint length2 = tBytes.length;\r\n        uint lengthTotal = length1 + length2;\r\n\r\n        bytes memory result = new bytes(lengthTotal);\r\n\r\n        for (uint i = 0; i < length1; i++) {\r\n            result[i] = sBytes[i];\r\n        }\r\n\r\n        for (uint j = 0; j < length2; j++) {\r\n            result[j+length1] = tBytes[j];\r\n        }\r\n\r\n        return string(result);\r\n    }\r\n}",
  "sourcePath": "E:\\devStuff\\learn\\blockfellows\\wk2\\intro2solidity\\contracts\\Concat.sol",
  "compiler": {
    "name": "solc",
    "version": "0.4.24+commit.e67f0147.Emscripten.clang"
  },
  "schemaVersion": "2.0.1",
  "updatedAt": "2018-07-10T05:24:51.174Z"
}