{
  "contractName": "xor",
  "abi": [
    {
      "constant": false,
      "inputs": [
        {
          "name": "x",
          "type": "uint256"
        },
        {
          "name": "y",
          "type": "uint256"
        }
      ],
      "name": "set",
      "outputs": [],
      "payable": false,
      "stateMutability": "nonpayable",
      "type": "function"
    },
    {
      "constant": true,
      "inputs": [],
      "name": "get",
      "outputs": [
        {
          "name": "",
          "type": "bool"
        }
      ],
      "payable": false,
      "stateMutability": "view",
      "type": "function"
    }
  ],
  "bytecode": "0x608060405234801561001057600080fd5b50610127806100206000396000f3006080604052600436106049576000357c0100000000000000000000000000000000000000000000000000000000900463ffffffff1680631ab06ee514604e5780636d4ce63c146082575b600080fd5b348015605957600080fd5b506080600480360381019080803590602001909291908035906020019092919050505060ae565b005b348015608d57600080fd5b50609460de565b604051808215151515815260200191505060405180910390f35b6001821115151560bd57600080fd5b6001811115151560cc57600080fd5b81600081905550806001819055505050565b6000600154600054141560f3576000905060f8565b600190505b905600a165627a7a72305820b7ff99d92e51f7ffbecd9d746654742cbf306ca7012be275d0f7c7e91ab223850029",
  "source": "pragma solidity ^0.4.0;\r\n\r\ncontract xor {\r\n    \r\n    //declare var\r\n    uint private input1;\r\n    uint private input2;\r\n    \r\n    //set the number\r\n    function set(uint x, uint y) public {\r\n        require(x <= 1);\r\n        require(y <= 1);\r\n        input1 = x;\r\n        input2 = y;\r\n    } //end set()\r\n    \r\n    //getter\r\n    function get() public view returns (bool) {\r\n        if (input1 == input2)\r\n            return false;\r\n        else \r\n            return true;\r\n    } //end get()\r\n    \r\n} // end xor",
  "sourcePath": "E:\\devStuff\\learn\\blockfellows\\wk2\\intro2solidity\\contracts\\XOR.sol",
  "compiler": {
    "name": "solc",
    "version": "0.4.24+commit.e67f0147.Emscripten.clang"
  },
  "schemaVersion": "2.0.1",
  "updatedAt": "2018-07-10T05:24:51.169Z"
}